:020000040800F2
:10000000580B0020C5020008E12C0008212200083E
:10001000DD2C00086D0C0008414E000800000000B7
:10002000000000000000000000000000F14C00088B
:10003000DD0C000800000000E52C0008F54C00086D
:10004000DF020008DF020008DF020008DF0200080C
:10005000DF020008DF020008DF020008DF020008FC
:10006000DF020008DF020008DF020008D10C0008F0
:10007000DF020008DF020008DF020008DF020008DC
:10008000DF02000800000000DF020008DF020008B5
:10009000DF020008DF020008DF020008DF020008BC
:1000A000DF020008DF020008DF020008DF020008AC
:1000B000DF020008DF020008DF020008DF0200089C
:1000C000DF020008DF020008DF020008DF0200088C
:1000D000DF020008DF020008DF020008DF0200087C
:1000E000DF020008DF020008DF020008DF0200086C
:1000F000DF020008DF020008DF0200080000000045
:1001000000000000DF02000800000000DF0200081D
:10011000DF02000800000000DF020008DF02000824
:10012000DF020008DF020008DF020008DF0200082B
:10013000DF0200080000000000000000DF020008ED
:10014000DF020008DF0200080000000000000000DD
:10015000000000000000000000000000000000009F
:10016000000000000000000000000000DF020008A6
:10017000DF02000800000000000000000000000096
:1001800000000000DF020008000000000000000086
:10019000000000000000000000000000000000005F
:1001A0000000000000000000DF020008DF0200087D
:1001B000DF020008DF020008DF0200080000000084
:1001C00000000000DF020008000000000000000046
:1001D000DF020008DF02000800F002F800F062F819
:1001E00014A696E8000CB244B344DA4501D100F0FD
:1001F00059F8BAE80F000FA696E83000A5EB040501
:1002000004EB0607AAEB0704A7F101074FEA15154F
:100210004FEA3414A4F10104AC4201D300F042F8D7
:1002200013F0010F18BFFB1A43F0010300F001F8AF
:10023000DBE718474088000060880000103A24BFC0
:1002400078C878C1FAD8520724BF30C830C144BF3B
:1002500004680C6070470000704700000023002411
:1002600000250026103A28BF78C1FBD8520728BFC6
:1002700030C148BF0B607047662907F0F2817329CF
:1002800000F07783002070471FB507F0D8F900F021
:1002900075FB04000020002106F096FBE0601FBD06
:1002A00010B510BD00F06EFC1146FFF7EDFF04F035
:1002B000D3FF00F08CFC03B4FFF7F2FF03BC00F0A7
:1002C000CDFC00000948804709480047FEE7FEE7EB
:1002D000FEE7FEE7FEE7FEE7FEE7FEE7FEE7FEE7F6
:1002E00004480549054A064B70470000F94C0008D0
:1002F000D901000858050020580B0020580700209D
:10030000580700200FB41CB5074B06AA7B4469466A
:100310000090059800F003FB0020694600F012FBF6
:100320001CBC5DF814FB00003506000070B50C46DF
:100330000546012A05D02878800600D5EA69002301
:1003400002E0012305E05B1C934202D2E05C00283E
:10035000F9D1A869E618C01AA861286A1844286269
:100360002846AFF3008004E0D5E9012114F8010B21
:100370009047B442F8D32846AFF3008070BD2DE912
:10038000F0474FF0000A89460446C0F820A02046F6
:10039000E1688847002876D0252806D0D4E90121D5
:1003A0009047206A401C2062F1E7E1682046002562
:1003B0008847C4F81CA006460027C4F818A02A2EB7
:1003C00009D0304606F0ECFA38B304EB8708303E2B
:1003D000C8F8186019E059F8041B204604EB87029E
:1003E0009161E1688847012F064618D1E06900282D
:1003F00020DA25F020051DE0D8F8180000EB800079
:1004000006EB40003038C8F818002046E1688847FD
:10041000064606F0C5FA0028EED1012F0AD02E2E8E
:1004200008D12046E16888477F1C0646022F45F028
:100430002005C4DBA069002803DA404245F001052D
:10044000A061E80701D025F01005B6B1A6F1410082
:10045000192802D8203645F400654A463146204620
:1004600025604D46FFF708FF58B1012806D0ED1D65
:1004700025F0070000F1080989E704E005F1040907
:1004800085E730468AE7206ABDE8F0874FF0000232
:1004900000B5134694469646203922BFA0E80C507A
:1004A000A0E80C50B1F12001BFF4F7AF090728BF55
:1004B000A0E80C5048BF0CC05DF804EB890028BFD1
:1004C00040F8042B08BF704748BF20F8022B11F0FA
:1004D000804F18BF00F8012B704770477047704776
:1004E00010B500F04FFA006810BD10B5044600F0DA
:1004F00049FA046010BD2DE9FF4F0C461E464FF02F
:10050000FF378BB0D2E90001DDF860800A908A469F
:10051000C1F30A5505B93D46002108464FF00000D9
:10052000BAF1000F00F4400005DA00EB80004FF450
:10053000400101EA50004FEA9059B9F1010F00DD86
:10054000B9460A9850EA4A000ED044F61050A5F277
:10055000FF3545432F14B8F1000F1ED07542291EF8
:100560001EDDC9F100021CE0B8F1010F4FF00000E0
:1005700001D0302103E0F24305E02154401CB04299
:10058000FBDB30460022002121540B99C1F8088082
:10059000C1E900200FB0BDE8F08FBD1B6D1CDEE788
:1005A0004A4600DA694206A800F076FA06AB93E8FC
:1005B000070003AB83E8070050460A9905F00CF9E1
:1005C0008DE80700A0F500501F3800900398002D1B
:1005D0000ADD42F21F014A460844002303A90390A2
:1005E000684605F075FB09E0A0F500504A461F3843
:1005F000002303A90390684605F07FFB8DE8070000
:100600000004000C03D04FF0FF30410800E010461A
:10061000B8F1000F03D00022009215461EE0751EAF
:1006200005D400F0B3F9303262556D1EF9D5B346EA
:100630000122084302D000227F1C04E020783028E9
:1006400001D100227F1E002A099784D01DE0112DC0
:1006500007DA00F09BF9303262556D1C50EA010256
:10066000F5D1084302D00098C8B10EE00021681E01
:1006700005E0235C625C63542254401E491C8142A5
:10068000F7DBAB46A81B401E0990002004F80B00C6
:100690000B98099AC0F80880C0E9002B7AE7112668
:1006A0004FF0000857E72DE9F04F88460446D21D69
:1006B00022F0070191B0D1E90001CDE90A0105F06E
:1006C00053FC02460B98C00F01D02D2007E0206894
:1006D000810701D52B2002E0202101EAC000032A76
:1006E000099001D0072A05DB03464146204600F069
:1006F00093F90BE12078800601D5E06900E006203F
:10070000B8F1650F814606D0B8F1660F18D0B8F180
:10071000670F70D131E00020B9F1110F009001DBBB
:10072000112301E009F101030AAA01A90CA8FFF7AE
:10073000E2FEDDE90C70002609F10105834647E081
:1007400001204B4600904FF000470AAA01A90CA8CF
:10075000FFF7D1FEDDE90DB00C995D46002610B91A
:1007600009F101000D18B9EB050003D4C0F1FF3603
:1007700009F10105A5EB09002BE0B9F1010F01DA40
:100780004FF001090020B9F1110F0090484601DD3A
:10079000112300E003460AAA01A90CA8FFF7ABFE4B
:1007A000DDE90C704D4600268346207800070AD408
:1007B000AB4500DA5D4601A8012D04DD411911F8B1
:1007C000011C302907D04F4502DA17F1040F04DA73
:1007D000012082460FE06D1EEEE7002F02DCED1BCC
:1007E0003E4403E0781CA84200DD7D1CB81B00F1EC
:1007F000010A4FF000472078000703D4AA4501DB27
:100800004FF0FF3A0021B7F1004F0DF143088DF88A
:10081000431024D002202B23002F01DA7F422D2306
:100820000A21021EA0F1010000DC5FB197FBF1FC80
:1008300097FBF1F201FB1C7C17460CF1300C08F819
:1008400001CDEEE7A8F1010003702188090501D56B
:10085000452100E06521A0F1010800F8011C09987C
:100860000FA9A1EB0807FF1D00B10120411901EB01
:10087000EA70A1693844081A401EA0612078C006B9
:1008800002D42046AFF30080099828B1D4E90121B1
:100890009047206A401C20622078C00622D520465E
:1008A000AFF300801EE0002E04DBB34502DD01A89B
:1008B000805D00E03020D4E901219047206A401C8F
:1008C0002062761CAAF101005FEA000A0AD100F05A
:1008D00055F8C0680168405CD4E901219047206A5E
:1008E000401C2062281EA5F10105DCDC07E0D4E9EC
:1008F000012118F8010B9047206A401C2062381E25
:10090000A7F10107F3DC2046AFF30080032011B00C
:1009100041E6000001694A1C02610878704700B591
:100920008FB0CDE901310021059105497944CDE928
:10093000031011466846FFF722FD0FB000BD00000E
:10094000E5FFFFFF0A6802F8010B0A60704710B567
:10095000436913B1AFF3008001E0FFF7E7FC01202A
:1009600010BD127800F124010A7000224A700122A1
:10097000EDE711684FF0FF32E9E7000000487047EB
:1009800048000020004870472800002030B5B0F132
:100990000A0271F100034FEA900E4EEA817EB0EB3D
:1009A0000E0061EB91014FEA101E4EEA017E10EB42
:1009B0000E0041EB11114FEA102E4EEA016E10EBC2
:1009C0000E0041EB11214FEA104E4EEA014E10EBA2
:1009D0000E0041EB1141401841F100014FEAD000F7
:1009E00040EA41704FEAD1014FEA810444EA907431
:1009F00010EB800544EB01046D1944EB0404521B19
:100A0000A3414FF0000348BF0A3200D530BD401C5F
:100A100041F1000130BD00002DE9F0411F460446C0
:100A200003260168072A01F4006004DB08B116A55B
:100A300005E016A503E008B115A500E015A521F015
:100A400010002060A069C01EA0610FB1401EA0610F
:100A50002046AFF300804FB1D4E9012138469047DA
:100A6000206A401C2062C01C206206E0206AFAE76F
:100A7000D4E9012115F8010B9047761EF8D22046E3
:100A8000AFF30080BDE8F0814E414E006E616E0014
:100A9000494E4600696E66002DE9F04781461646CC
:100AA0008AB0354878440DC88DE80D003248784446
:100AB000801C03AC0DC884E80D0041F69B3008444F
:100AC000372190FBF1F290FBF1F5A5F1800501FBD8
:100AD00012041B3C02D56442012000E00020DFF834
:100AE00098A080460027FA44AAF1BE0A0EE0E0076B
:100AF0000AD03246684607EB470101230AEB810121
:100B000005F0FBF88DE8070064107F1C002CEED187
:100B1000194F7F44AE3F19E0E80715D007EB0410EA
:100B20000DF1180A90E80E008AE80E00C068F04245
:100B300001D1981908903246012306A903A805F0AF
:100B4000DCF803AB83E807006D10641C002DE3D1D3
:100B50004FF0010332466946B8F1000F03A802D0F6
:100B600005F0B6F801E005F0C8F8C9E90001C9F8D8
:100B700008200AB0BDE8F087646D000000487047A7
:100B8000280000207546FFF7F9FFAE4605006946CC
:100B9000534620F00700854618B020B5FFF7A0FBAC
:100BA000BDE820404FF000064FF000074FF000086E
:100BB0004FF0000BAC46ACE8C009ACE8C009ACE8AB
:100BC000C009ACE8C00921F007018D46704710B597
:100BD0000446AFF300802046BDE81040FFF76BBB32
:100BE00030B44FF0013C50F8042B51F8043BCCFAE0
:100BF00052F4D51A20D1FCB950F8042B51F8043B1B
:100C0000CCFA52F4D51A17D1B4B950F8042B51F8D4
:100C1000043BCCFA52F4D51A0ED16CB950F8042B1F
:100C200051F8043BCCFA52F4D51A05D1002CDAD095
:100C300030BC4FF00000704729BAB1FA81F111F0D1
:100C40001801D1F120008440F2D1CA40CB4012F00B
:100C5000FF0213F0FF0330BCD01A7047014918207F
:100C6000ABBEFEE72600020070470000FEE7000072
:100C700010B5846A204600F037F90120207110BDBC
:100C800010B5846A204600F031F80120207110BDB3
:100C900010B5846A206940F004002061204600F00D
:100CA00027F90120207110BD10B5846A206940F039
:100CB00004002061204600F01DF80120207110BDC5
:100CC000806A00F013B90000806A00F011B80000DB
:100CD00040F2DC30C2F2000000F022BA704700009F
:100CE000EFF3108072B600BFFEE70000704700000F
:100CF00070470000704700002DE9F04104460028CD
:100D00004FF0010018BF002902D1BDE8F08100BFFB
:100D1000607901284FF0020008BFBDE8F0818B68C0
:100D20000127042B677120711ED10F46154600F074
:100D300047FC23682E46596B002D054634D0B1F18F
:100D4000FF3F06DD786A3946586432E0586B002868
:100D5000F8D500F035FC401B23680228F6D3586B09
:100D6000B0F1FF3FF2DC7BE02368C869012839D18C
:100D7000986B02F010051F220F6AAA40904307FAF1
:100D800005F210439863D3F83CC08A69012A30D039
:100D9000022A03D14FF001082DE000BF4A69B2FAE0
:100DA00082F24FEA521826E0080450D4786A394695
:100DB0001864986C324606F0100740F2FF36D1E90D
:100DC0000A5CBE40B04305FA07F630439864D86C1D
:100DD000FF26BE40B0430CFA07F73843D864C86911
:100DE0000128C5D002F01005D3F83CC08A69012A59
:100DF000CED14FF000088B684F69087940F2073672
:100E000043EA080306FA05FE4A7943EA0706012881
:100E100008BF46F48076012A08BF46F400766FF4D6
:100E200040400A6880EA0E00022A00EA0C071FD13F
:100E3000884600F08DFE46F60101C0F68911884211
:100E400018D347F400471DE0586B0004AED500F0FE
:100E5000B7FB401B23680228F6D3586B0004F3D578
:100E6000206940F00800206103202071BDE8F08176
:100E7000174308E04BF20041C0F2C441884288BFEA
:100E800047F48047414606FA05F220683A43C263B8
:100E90004FF480420368AA4023EA0202026002681B
:100EA00040F6FE73D1E90317AB409A4301FA05F30C
:100EB0001A430260C0220368AA4023EA02020260C9
:100EC000C1F3830107F03C0241EA8211026E40F651
:100ED0000F73AB409A43A940114301660120207172
:100EE00000206071BDE8F08170470000704700008D
:100EF00070470000002804BF01207047017941B904
:100F000010B500214171044600F00CF82046BDE800
:100F10001040022101710021012201610271084685
:100F200070470000F0B587B00446006840F6000145
:100F3000C5F2000100268842CDE90566CDE90366C9
:100F4000029601D007B0F0BD41F24C00C4F202009D
:100F50000168102741F480310160016801F480319B
:100F600001910199016841F001010160006802A945
:100F700000F00100019001980320CDE903064FF035
:100F80009040029700F036FA40F2DC350820C2F2B9
:100F90000005C4F2020006214FF4007385E88300C7
:100FA00005F1140080224FF4806C4FF0200E80E891
:100FB00008502846C5E903622E6200F007F90028B0
:100FC00018BFFFF78DFEA560AC6207B0F0BD000052
:100FD000B0B38446407901284FF0020008BF704743
:100FE0002DE9F04381B0089C012688468CF8056005
:100FF0008CF8040031B3DCF80C0040F6814740F671
:10100000C94640F6A945DCF80010C0F60007C0F656
:101010000006C0F60005C0E90B7645630F68042C96
:1010200047F080570F604FF01C0708BF1827E146B4
:10103000002C08BF142701EB070C4FF0005425E0EB
:1010400001207047DCF80010E146DCF8080040F6AB
:10105000714C40F6C14E40F69147C0F6000CC0F608
:10106000000EC0F60007C0E90BCE47630F68042CE2
:1010700047F480570F604FF0100708BF0C27002C73
:1010800008BF082701EB070C4FF400540F682743F3
:101090000F601146624600F025F900214D4689F89F
:1010A000051038B1296941F00401296101B0BDE89A
:1010B000F08300BF296808F0100001220B6802FAD3
:1010C00000F01843086040F21400C2F2000000680B
:1010D00042F663518009C0F23E51A0FB010102EBD0
:1010E000911000900098B8B10098013800900098D5
:1010F00090B1009801380090009868B100980138CC
:101100000090009840B100980138009000980028A5
:101110004FF00000E8D1C9E7002001B0BDE8F0833E
:10112000B0B5D0E910C30268DCF8001003F01F036B
:101130000424D2F800E09C400C4218BF1EF00405C5
:1011400020D102249C400C4218BF1EF0020529D178
:10115000D940090714D51EF0080108BFB0BD1168B9
:1011600021F00E011160012101FA03F2CCF80420F4
:10117000C16380F82510416B002280F8242069B9F2
:10118000B0BD00BF1168890603D4116821F00401C5
:101190001160CCF80440016B0029F1D0BDE8B040EB
:1011A000084700BF1168890606D4116821F00A01BA
:1011B0001160012180F82510CCF80440C16A00229A
:1011C000002980F82420E9D1DAE7000000284FF058
:1011D000010100F085802DE9F04740F2000CC4F2D7
:1011E000020C03684FF6F8320CF5816ECBF6FD72F7
:1011F000734538BF02F580624CF6CD441A44CCF6F4
:10120000CC44A2FB042903F0FC02A2F10802A2FBD9
:1012100004280CF580646FF00305D0E902A6076985
:101220003CBF0024C4F2020405EA9905C0E9104558
:10123000022480F825401C6847F6F07224EA020276
:10124000324346693A4387693243C6693A43076A7B
:1012500032433A4342EA0A021A600CF502627345CD
:1012600038BF0CF50062AB180CF50862C264C8F315
:10127000041201FA02F540F68401BAF5804FC4F277
:1012800002018364056505D1002242601A600D6089
:1012900018E000BF4268D4B2013A032A4FF00002BE
:1012A0001C600D600ED8631E01EB830747F87C2F8E
:1012B00003F01F0201239340C1F8C030BC313A460D
:1012C00002E000BF00210023C0E915210021012216
:1012D000C365C16380F8252080F82410BDE8F0477D
:1012E0000846704790F824C0BCF1010F47D04FF07A
:1012F000010C80F824C090F825C0BCF1010F3BD14F
:101300002DE9F0414FF0020C80F825C04FF0000CA1
:10131000C0F83CC0D0F800C000F14C0E9EE8304050
:10132000DCF80060BEF1000F26F00106CCF800608A
:1013300065601CBFD0E916456560D0E910560127ED
:1013400006F01F06846807FA06F6D0F830806E6053
:10135000CCF804300B46102C04BF13460A46CCF8D8
:101360000830CCF80C20DCF80010B8F1000F09D0E0
:1013700041F00E010EE000BF002180F82410022091
:10138000704700BF21F00401CCF80010DCF8001019
:1013900041F00A01CCF80010806C0168C90303D544
:1013A000016841F480710160BEF1000F05D0DEF8E4
:1013B000000040F48070CEF80000DCF8000040F03F
:1013C0000100CCF800000020BDE8F081B0B5044673
:1013D00000F0F6F8054640F20800C2F2000040684E
:1013E000611C18BF044400BF00F0EAF8401BA04293
:1013F000FAD3B0BD2DE9F04F83B00E68002E00F097
:10140000CF8000F1200241F2004C009200F13847F9
:10141000C4F6000C06224FEAB725604508BF052236
:10142000052D38BF4FEAB722002500274FF00008EE
:1014300001920AE00E6808F1010836FA08F207F195
:10144000020705F1040500F0AB80012202FA08FE54
:1014500016EA0E09EED0D1F804C003220CF0030BFB
:10146000ABF1010602FA07F4012E6FEA040A11D863
:101470008468CE6804EA0A04BE4034438460446849
:1014800024EA0E06CCF3001404FA08F4264346605E
:1014900006E000BFBBF1030F02D14FF0030B21E0C8
:1014A000C6688C6806EA0A06BC402643BBF1020FF8
:1014B000C66017D16FF00302009B02EA580605F0E0
:1014C0001C020F2453F806C004FA02FE0C692CEA31
:1014D0000E0C04FA02F242EA0C029A51D1F804C04E
:1014E0000CF0030B02680BFA07F302EA0A021A4334
:1014F0001CF4403F02609DD041F26003C4F202033D
:101500001A6840F2004E42F001021A601A68C4F2F2
:10151000010E02F001020292029A28F003024FF635
:10152000084C7244CFF6FF7C52F80C3005F00C06E4
:101530000F24B440A343019C04FA06F6334342F857
:101540000C30DEF808204B6842EA090640F20C4CE9
:10155000DC0258BF22EA0906CEF80860C4F2010C8A
:10156000DCF800209C0242EA090658BF22EA09067C
:10157000CCF80060DEF804209C0342EA090658BF5C
:1015800022EA0906CEF80460DEF80020DB0342EA16
:10159000090658BF22EA0906CEF800604AE700BFF4
:1015A00003B0BDE8F08F00000069084018BF0120BB
:1015B000704700001823002A08BF2823C150704735
:1015C00040F25050C2F200000068704740F208003C
:1015D00040F25051C2F20000C2F2000140680A68B5
:1015E000104408607047000080B5032000F08CF8BC
:1015F0000F2000F009F800281CBF012080BD00F07A
:101600002BF8002080BD0000B0B540F20805C2F202
:1016100000056968F1B1044640F21400C2F200000E
:101620004FF47A720068B2FBF1F1B0FBF1F000F018
:10163000FDFC01460F2C4FF001000AD8002918BF0D
:10164000B0BD4FF0FF302146002200F031F80020FD
:101650002C60B0BD0120B0BD82B041F25800C4F290
:101660000200816841F001018160816801F001019F
:1016700001910199016841F080510160006800F01A
:1016800080500090009802B000F0D6B8002848BF03
:10169000704700F01F01012202FA01F11C2202EA48
:1016A000D0004EF20012CEF20002815070470000CE
:1016B00010B54EF60C5CCEF2000CDCF80030C3F333
:1016C000022E8EF00704042C28BF0424BEF103036D
:1016D0004FF0FF3E0EFA04F438BF0023A1439940B7
:1016E0000EFA03F39A43114300F00F0200F1604336
:1016F0000901043A03F564436244002848BF02F13B
:101700000C03197010BD00004EF60C51CEF2000112
:101710000A684FF6FF031A4060F30A2242F0806025
:1017200040F0FD700860704747F21401C4F20001F8
:1017300051F8142CB0F5007F3CD0002874D1C86E4D
:1017400002F4C06220F48070B2F5806FC8662FD1B9
:1017500051F8140C012262F34A2041F8140C40F2B3
:101760001400C2F200000068322250434DF683623A
:10177000C4F21B32A0FB0202900C00BF0A685205A3
:1017800011D5421C0FD00A6852050CD558B10A6811
:10179000520508D5012806D00A68520503D502284B
:1017A000A0F10400EAD10868400544BF0320704757
:1017B00000207047C86E02F4C06240F48070B2F539
:1017C000806FC866F4D151F8140C012262F34A20EC
:1017D00041F8140C40F21400C2F2000000683222FA
:1017E00050434DF68362C4F21B32A0FB0202900C00
:1017F0000A68520511D5421C0FD00A6852050CD553
:1018000058B10A68520508D5012806D00A68520561
:1018100003D50228A0F10400EAD10868400544BFBE
:1018200003207047C4E700BF022060F34A2241F85A
:10183000142C00207047000047F20800C4F200009A
:10184000016841F480410160704700002DE9F047D4
:10185000002863D042F2000AC4F2020A0446DAF811
:1018600000000D4600F00F0088420CD2DAF80000AC
:1018700020F00F002843CAF80000DAF8000000F05A
:101880000F00A8424AD1216841F20808C807C4F2F3
:10189000020803D1880740F1D080B5E0606858F8AD
:1018A000082C022838D003283CD1920136D5D8F82C
:1018B0000420D8F8043042F20046C3F3031302F0C8
:1018C0000302D8F804700133C0F2F406032A04BFFF
:1018D00043F20066C0F26E16B6FBF3F2D8F804309D
:1018E000C7F306277A43C3F34163022707EB430399
:1018F000B2FBF3F24BF20043C0F2C4439A4259D90F
:10190000D8F8002012F0F00F49D0890752D5A1680D
:1019100000294FD143E000BF910305D40120BDE869
:10192000F08700BF5105F9D5D8F8001001F00C017F
:1019300004293FD0D8F8001001F00C01082939D053
:10194000D8F8001001F00C010C2933D1D8F804109C
:10195000D8F8042042F20047C2F3031201F0030159
:10196000D8F804300132C0F2F407032904BF43F26F
:101970000067C0F26E17B7FBF2F1D8F80420C3F38A
:1019800006235943C2F34162022303EB4202B1FB37
:10199000F2F14BF20042C0F2C44291420AD9D8F8A7
:1019A0000010082262F307114FF00109C8F8001077
:1019B00002E000BF4FF00009D8F8001021F0030149
:1019C0000843C8F80000FFF7FBFD064641F28837E0
:1019D000D8F80000616800F00C00B0EB810F07D070
:1019E000FFF7EEFD801BB842F2D90320BDE8F08777
:1019F0002168880708D4B9F1000F1ED0D8F800007C
:101A000020F0F00017E000BF480705D5D8F8000027
:101A100040F4E060C8F80000080706D5D8F80000D8
:101A2000072262F30D20C8F80000D8F80000A26871
:101A300020F0F0001043C8F80000DAF8000000F0D1
:101A40000F00A8421BD9DAF8000020F00F0028434D
:101A5000CAF80000FFF7B4FD064641F2883700BF20
:101A6000DAF8000000F00F00A84207D0FFF7A8FD49
:101A7000801BB842F4D90320BDE8F08721684807ED
:101A800007D5D8F80000E26820F4E0601043C8F8F9
:101A90000000080708D5D8F80000216920F460503C
:101AA00040EAC100C8F80000D8F8000042F2004146
:101AB000C0F2F40100F00C00042808462DD0D8F83C
:101AC000000000F00C00082843F20060C0F26E1025
:101AD00023D0D8F8002002F00C020C2A1CD1D8F830
:101AE0000420D8F8043002F00302C3F30313D8F83B
:101AF00004700133032A08BF0146B1FBF3F0D8F8A4
:101B00000410C7F30627C1F341610222784302EBB8
:101B10004101B0FBF1F000E00020D8F8001047F6DA
:101B20002402C1F30311C0F60002515C40F214021A
:101B300001F01F0120FA01F140F20800C2F200009A
:101B40000068C2F200021160BDE8F047FFF75CBD1B
:101B500040F21400C2F2000000687047002804BF81
:101B6000012070472DE9F04182B00446007841F22F
:101B70000006C007C4F202061ED1207880073DD4BB
:101B80002078000764D42078400700F1878020780F
:101B9000800600F1D980E569002D00F04282B0682E
:101BA00000F00C000C2840F03181012D40F08E81B6
:101BB000012002B0BDE8F081B06800F00C01F068CF
:101BC000082961D0032281F00C0122EA00000844B8
:101BD000B0FA80F0400957D161683068B1F5803FB4
:101BE00007D0B1F5A02F40F0E38040F480203060B2
:101BF000306840F480303060E4E000BFB068F168E5
:101C000000F00C00042871D001F0030180F00C00FA
:101C100081F002010844B0FA80F0400966D1E16821
:101C20003068002900F0E08040F480703060FFF7F9
:101C3000C7FC05463068400500F10A81FFF7C0FC8B
:101C4000401B0228F6D9032002B0BDE8F08100BF96
:101C50006169D6F89400002900F0948040F00100FA
:101C6000C6F89400FFF7ACFC054600BFD6F8940018
:101C700080073FF588AFFFF7A3FC401B0228F5D98A
:101C8000032002B0BDE8F081306880037FF575AFB6
:101C9000606800287FF471AF3EE000BFB06D5FEA7E
:101CA000C00808D4B06D40F08050B065B06D00F051
:101CB00080500190019847F20007C4F2000738688D
:101CC000C0052DD4386840F480703860FFF778FC88
:101CD000054600BF3868C00522D4FFF771FC401BE1
:101CE0000228F7D9032002B0BDE8F0813068400532
:101CF00001D5E06880B17068216920F0FE4040EABB
:101D00000160706040F20800C2F200000068FFF756
:101D10007BFC00283FF434AF012002B0BDE8F08125
:101D2000A168D6F89000012908D0052940F0AE80BE
:101D300040F00400C6F89000D6F8900040F0010092
:101D4000C6F89000AEE000BFA169D6F8980000295F
:101D500000F0868040F00100C6F89800FFF730FCE4
:101D6000054600BFD6F8980080073FF514AFFFF78F
:101D700027FC401B02284FF00300F3D902B0BDE856
:101D8000F08100BF20F00100C6F89400FFF718FCB6
:101D9000054600BFD6F8940080077FF5F4AEFFF744
:101DA0000FFC401B0228F5D9032002B0BDE8F081EA
:101DB00020F4803030603068002920F480203060CA
:101DC00000F0BE80FFF7FCFB054600BF30688003D3
:101DD0003FF5D3AEFFF7F4FB401B6428F6D9032090
:101DE00002B0BDE8F08100BF20F480703060FFF7E2
:101DF000E7FB0546306840057FF5C2AEFFF7E0FB24
:101E0000401B02284FF00300F4D9B7E7306820F0F8
:101E100080703060FFF7D4FB022D05460CD100BF67
:101E20003068800140F1B880FFF7CAFB401B0228F0
:101E30004FF00300F4D9A1E73068800140F1EA8057
:101E4000FFF7BEFB401B02284FF00300F4D995E7D3
:101E50007068216920F0FE4040EA016070608FE602
:101E600020F00100C6F89800FFF7AAFB054600BF66
:101E7000D6F8980080077FF58EAEFFF7A1FB401BD8
:101E800002284FF00300F3D978E700BF20F00100EB
:101E9000C6F89000D6F89000002920F00400C6F89B
:101EA00090005DD0FFF78CFB054641F2883700BFFC
:101EB000D6F89000800765D4FFF782FB401BB8423C
:101EC000F6D9032002B0BDE8F08100BFF068216AB6
:101ED00000F003028A427FF41FAF626A6FF00F03C3
:101EE00000F0F00103EB021291427FF415AFA16AFA
:101EF00000F4FE42B2EB012F7FF40EAFE16A00F076
:101F00007842B2EBC16F7FF407AF226B0023CFF6AC
:101F1000E07303EA025200F4C001A2F500129142FC
:101F20007FF4FAAE616B4FF07E4202EA016100F08D
:101F3000C06001F17E4188427FF4EEAE71E000BFE7
:101F4000FFF73EFB054600BF306880037FF515AE06
:101F5000FFF736FB401B64284FF00300F4D90DE770
:101F6000FFF72EFB054641F2883700BFD6F89000F8
:101F7000800707D5FFF724FB401BB8424FF0030052
:101F8000F4D9FBE6B8F1000F3FF501AEB06D20F0DB
:101F90008050B065FBE500BFF06848F20C01C0F26C
:101FA0009F1104F1200700EA010C8ECF6FF00F00A3
:101FB000D4E90C5400EB02100022CFF6E07241EAA3
:101FC0000C0102EA05520843A2F500124FF07E45CB
:101FD00040EA032005EA0465104305F17E4540EA26
:101FE000C7602843F060306840F080703060F0686F
:101FF00040F08070F060FFF7E3FA0446306880013B
:102000000FD4FFF7DDFA001B02284FF00300F5D9CB
:10201000B4E600BFF0684FF6FC71CFF6EE61084001
:10202000F060002002B0BDE8F0810000411E0020F9
:10203000B0EB116F1CBF012070474EF21002CEF2C0
:10204000000251604EF62351CEF20001F0230B70D6
:10205000072190601160704790F83C20012A4FF0F2
:1020600002024AD070B580F83D20026843F2004C6D
:1020700054689368C4F2010C42F6004E6245C4F203
:10208000010E01D0724503D14D6824F470042C4335
:102090004FF68F75CFF6FF550E682C4042F6FF3590
:1020A000C4F201053443AA4254600FDCB2F1804F00
:1020B00016D040F20046C4F20006B24210D040F6FC
:1020C0000006C4F20006B2420AD00EE0724507D004
:1020D00044F20006C4F20106B24201D0624504D1C6
:1020E000896823F08003194391600121002280F860
:1020F0003D1080F83C20BDE870401046704700005D
:10210000002804BF0120704710B5044690F83D0038
:1021100028B9002084F83C00204600F023F8022073
:1021200084F83D002068211D02F0F0FD012084F8B4
:10213000480084F83E0084F83F0084F8400084F8AA
:10214000410084F8420084F8430084F8440084F895
:10215000450084F8460084F8470084F83D000020DC
:1021600010BD0000006841F20041C4F20001884245
:1021700018BF704781B041F25800C4F202000168F4
:1021800041F020010160006800F0200000900098FC
:1021900001B0704790F83D10012919D1022180F853
:1021A0003D10016842F6FF30C4F20100814211DCAB
:1021B000B1F1804F20D040F20040C4F200008142D3
:1021C0001AD040F60000C4F20000814214D020E092
:1021D0000120704742F60040C4F2010081420BD05A
:1021E00044F20000C4F20100814205D043F20040F5
:1021F000C4F2010081420CD188680722C0F20102BA
:102200000240062A4FF00000E3D0B2F5803F08BF3D
:102210007047086840F00100086000207047000027
:10222000FEE7000040F21841C4F60001D1F8FCC3FB
:102230000B6943F400730B610B6943F480730B610A
:102240000B6843F020030B602023C1F8FC330B69BB
:1022500043F020030B6100BF00BF00BF0B6843F0D9
:1022600020030B600B6843F480730B600023C1F8FC
:10227000FC330A6942F020020A6100BF00BF00BFC0
:102280000A6842F020020A600A6842F480720A601A
:102290000A6942F400720A610A6942F480720A61B2
:1022A0000A6842F020020A602122C1F8FC230A6970
:1022B00042F020020A6100BF00BF00BF0A6842F07E
:1022C00020020A600A6842F480720A60C1F8FC3396
:1022D0000A694FF4963342F020020A6100BF00BF42
:1022E00000BF0A6842F020020A600A6842F4807265
:1022F0000A600A6942F400720A610A6942F4807253
:102300000A610A6842F020020A602222C1F8FC2316
:102310000A6942F020020A6100BF00BF00BF0A68DC
:1023200042F020020A600A6842F480720A6000BF2C
:1023300000BF00BF0A6842F400720A600A69053BE8
:1023400042F400720A610A6842F480720A600A6804
:1023500042F020020A60C1F8FC030A6942F0200240
:102360000A6100BF00BF00BF0A6842F020020A6095
:102370000A6842F480720A6000BF00BF00BF0A68AA
:1023800042F400720A600A6942F400720A610A6843
:1023900042F480720A600A6842F020020A60C1F8C2
:1023A000FC030A6942F020020A6100BF00BF00BFBF
:1023B0000A6842F020020A600A6842F480720A60E9
:1023C00000BF00BF00BF0A6842F400720A600A69D9
:1023D00042F400720A610A6842F480720A600A6874
:1023E00042F020020A60C1F8FC030A6942F02002B0
:1023F0000A6100BF00BF00BF0A6842F020020A6005
:102400000A6842F480720A6000BF00BF00BF0A6819
:1024100042F400720A600A6942F400720A610A68B2
:1024200042F480720A600A6842F020020A60C1F831
:10243000FC030A6942F020020A6100BF00BF00BF2E
:102440000A6842F020020A600A6842F480720A6058
:1024500000BF00BF00BF0A6842F400720A600A6948
:1024600042F400720A610A6842F480720A600A68E3
:1024700042F020020A60C1F8FC030A6942F020021F
:102480000A6100BF00BF00BF0A6842F020020A6074
:102490000A6842F480720A6000BF00BF00BF0A6889
:1024A00042F400720A607FF449AF1FFA8CF0C1F861
:1024B000FC0370472DE9F04740F61408C4F6000805
:1024C000D8F800900A78E2B147F6340A04464F1C67
:1024D000002640F23F15C0F6000A00BFA2F120001E
:1024E000C1B2490051FA80F00AEB0012A9B22046AD
:1024F00000F00EF8BA5D22B1103D132E06F1010670
:10250000ECD31FFA89F0C8F80000BDE8F08700009E
:102510002DE9F04740F21843C4F600031F694FF05D
:10252000200C47F400771F611F694FF0210E47F41C
:1025300080771F611F6840F2100947F020071F6075
:10254000C3F8FCC31F6940F2A40A47F020071F61CB
:1025500000BF00BF00BF1F684FF0220847F02007F0
:102560001F601F68C2F2000947F480771F60C3F83C
:10257000FC031F69C2F2000A47F020071F6100BF79
:1025800000BF00BF1F6847F020071F601F6847F4A7
:1025900080771F601F6947F400771F611F6947F448
:1025A00080771F611F6847F020071F60C3F8FCE3B6
:1025B0001C6944F020041C6100BF00BF00BF1C6800
:1025C00044F020041C601C6844F480741C60C3F850
:1025D000FC131C6944F020041C6100BF00BF00BF55
:1025E0001C6844F020041C601C6844F480741C6067
:1025F000002400BF1D6945F400751D611D6945F487
:1026000080751D611D6845F020051D60C3F8FC83C1
:102610001D6945F020051D6100BF00BF00BF1D689A
:1026200045F020051D601D6845F480751D6000BFE4
:1026300000BF00BF1D6845F400751D60002500BF88
:1026400032F81460EE40F607564608BF4E4636880C
:102650001F6947F400771F611F6847F480771F6088
:102660001F6847F020071F60C3F8FC631E696F1CDA
:1026700046F020061E6100BF00BF00BF1E6846F086
:1026800020061E601E6846F480761E6000BF00BFF4
:1026900000BF1E6846F400761E6032F81460FE40EB
:1026A000F607564608BF4E4636881F6947F400773E
:1026B0001F611F6847F480771F601F6847F020077D
:1026C0001F60C3F8FC631E69AF1C46F020061E6144
:1026D00000BF00BF00BF1E6846F020061E601E68D7
:1026E00046F480761E6000BF00BF00BF1E6846F43F
:1026F00000761E6032F81460FE40F607564608BFAA
:102700004E4636881F6947F400771F611F6847F4FB
:1027100080771F601F6847F020071F60C3F8FC63C5
:102720001E69EF1C46F020061E6100BF00BF00BFFF
:102730001E68043546F020061E601E6846F480764A
:102740001E6000BF00BF00BF1E6846F400761E601A
:1027500032F81460FE40F607564608BF4E463688EB
:102760001F69102D47F400771F611F6847F48077B9
:102770001F601F6847F020071F60C3F8FC631E69D5
:1027800046F020061E6100BF00BF00BF1E6846F075
:1027900020061E601E6846F480761E6000BF00BFE3
:1027A00000BF1E6846F400761E607FF449AF1D69C5
:1027B000013045F400751D611D69013445F48075D3
:1027C0001D611D68182C45F020051D60C3F8FCC371
:1027D0001D6945F020051D6100BF00BF00BF1D68D9
:1027E00045F020051D601D6845F480751D60C5B26B
:1027F000C3F8FC531D6945F020051D6100BF00BFF3
:1028000000BF1D6845F020051D601D6845F48075FA
:102810001D601D6945F400751D611D6945F48075D5
:102820001D611D6845F020051D60C3F8FCE31D69AE
:1028300045F020051D6100BF00BF00BF1D6845F0C9
:1028400020051D601D6845F480751D60C3F8FC13EC
:102850001D6945F020051D6100BF00BF00BF1D6858
:1028600045F020051D601D6845F480751D6008BF9A
:10287000BDE8F087BEE600002DE9F04F8BB040F6D2
:102880001408C4F60008D8F800000025009041F2B2
:102890004C000595CDE90355CDE90155C4F2020080
:1028A000016840F2184741F0040101600168C4F674
:1028B000000701F0040106910699016801AC41F09E
:1028C0000101016001684FF0030901F00101069167
:1028D00006990168012641F0020101600068214665
:1028E00000F00200069006984FF448700190012015
:1028F0000290A7F11800CDE90359FEF77BFD4FF4D4
:102900008070CDE901064FF090402146CDE9035992
:10291000FEF770FD4FF6FF7007F57A74069006A972
:1029200020460A954FF6FF7ACDF82490CDE9076549
:10293000FEF760FD4FF6004BCFF6FF7B57F80B001C
:1029400006A940F4807047F80B0038684FF6FF7610
:1029500040F408703860386940F4007038613869B4
:1029600040F480703861386840F020003860C8F862
:102970000050386940F02000386100BF00BF00BF40
:10298000386840F020003860386840F48070386063
:1029900020460A95CDF818A0CDF82490CDE907552A
:1029A000FEF728FD4FF61048CFF6FF7857F80800DD
:1029B00007A940F4807047F8080000BF00BF00BFBF
:1029C000D7F8F8A357F80B0040F4807047F80B00D5
:1029D000012081E8210206A920460A950696FEF705
:1029E00009FD386848F2302140F40070386040F248
:1029F000C630C2F20000A0F800A00088884203D1CF
:102A000000F072F902E000BF00F0E2FE3869002633
:102A100040F40070386138694FF6FF7940F48070F7
:102A2000386138684FF0030A40F02000386040F603
:102A30001400C4F600000660386906A940F02000C2
:102A4000386100BF00BF00BF386840F02000386028
:102A5000386840F48070386020460A96CDE90696C2
:102A6000CDE9086AFEF7C6FC57F8080007A940F44C
:102A7000807047F8080000BF00BF00BFD7F8F853C8
:102A800057F80B0040F4807047F80B00012081E8F4
:102A9000410406A920460A96CDF81890FEF7AAFC34
:102AA000386840F6140140F40070386040F2C630D7
:102AB000C2F2000005800098C4F6000180B20860F0
:102AC0000BB0BDE8F08F000081B0ADF80200BDF89A
:102AD000020040F21001C2F20001088001B070470C
:102AE00081B0ADF80200BDF8020040F2A401C2F2CC
:102AF0000001088001B0704780B58CB06846043092
:102B00002C21FDF7C3FC40F2C83040F60001C2F2B0
:102B10000000C5F200010160FEF7ECF9002818BFC3
:102B2000FEF7DEF800200A21CDE903100121009014
:102B3000ADF8040002900590CDE9061040F2C830CF
:102B4000C2F2000069460022FEF7D6F8002818BF3E
:102B5000FEF7C6F80CB080BD80B582B041F24800E7
:102B6000C4F202000168002241F004010160016822
:102B700001F0040101910199016841F00101016036
:102B80000068002100F00100009000980B20FEF783
:102B90008FFD0B2002B0BDE88040FEF777BD00003E
:102BA0002DE9F04387B0002741F24C000697CDE9AC
:102BB0000477CDE90277C4F20200016840F600050F
:102BC00041F0040101600168C4F6000501F0040150
:102BD000019101990168012241F020010160016821
:102BE0004FF47F4601F020010191019901684FF0F7
:102BF000010841F001010160016801F0010101914A
:102C00000199016841F002010160016801F00201CF
:102C100001910199016841F00801016000684FF4D9
:102C20007F4100F00800019001982846FEF7C2FCA1
:102C300005F580642046042101224FF00409FEF7C7
:102C4000B9FCCDE9026802AE28463146CDE90477E9
:102C5000FEF7D0FB4FF090403146CDE90287049754
:102C6000FEF7C8FB0720CDE90207A5F580603146D5
:102C70000497FEF7BFFB20463146CDE90298CDE927
:102C80000477FEF7B7FB07B0BDE8F08310B584B05A
:102C900040F23C4041F200410024C2F20000C4F284
:102CA0000001C7220294C0E90014C0E90242846115
:102CB000FFF726FA002818BFFEF712F8202001902F
:102CC00040F23C40C2F2000001A90394FFF7C4F9AE
:102CD000002818BFFEF704F804B010BDFEE700009E
:102CE000FEE700007047000040F21840C4F6000004
:102CF0000169002241F40071016101694FF0030C88
:102D000041F480710161016841F020010160C0F867
:102D1000FC23016941F02001016100BF00BF00BF39
:102D2000016841F020010160016841F48071016097
:102D30000121C0F8FC13036943F02003036100BFC5
:102D400000BF00BF036843F020030360036843F43F
:102D500080730360036943F400730361036943F400
:102D600080730361036843F020030360C0F8FC1321
:102D7000036943F02003036100BF00BF00BF036885
:102D800043F020030360036843F480730360C0F8DA
:102D9000FC23026942F02002026100BF00BF00BFB5
:102DA000026842F020020260026842F4807202600F
:102DB000026942F400720261026942F480720261A7
:102DC000026842F0200202601022C0F8FC2302696F
:102DD00042F02002026100BF00BF00BF026842F063
:102DE00020020260026842F48072026041F2907236
:102DF000C0F8FC23026942F02002026100BF00BF5C
:102E000000BF026842F020020260026842F4807251
:102E10000260026942F400720261026942F4807247
:102E20000261026842F0200202606022C0F8FC23C6
:102E3000026942F02002026100BF00BF00BF0268C9
:102E400042F020020260026842F4807202604FF495
:102E50001C52C0F8FC23026942F02002026100BF4C
:102E600000BF00BF026842F020020260026842F424
:102E700080720260026942F400720261026942F4E7
:102E800080720261026842F0200202606122C0F892
:102E9000FC23026942F02002026100BF00BF00BFB4
:102EA000026842F020020260026842F4807202600E
:102EB000C0F8FC13016941F02001016100BF00BFAF
:102EC00000BF016841F020010160016841F4807198
:102ED0000160016941F400710161016941F480718F
:102EE0000161016841F0200101604621C0F8FC1336
:102EF000016941F02001016100BF00BF00BF01680E
:102F000041F020010160016841F4807101600221FB
:102F1000C0F8FC13026942F02002026100BF00BF4A
:102F200000BF026842F020020260026842F4807230
:102F30000260026942F400720261026942F4807226
:102F40000261026842F0200202601322C0F8FC23F2
:102F5000026942F02002026100BF00BF00BF0268A8
:102F600042F020020260026842F48072026048F27D
:102F70001002C0F8FC23026942F02002026100BF87
:102F800000BF00BF026842F020020260026842F403
:102F900080720260026942F400720261026942F4C6
:102FA00080720261026842F0200202601222C0F8C0
:102FB000FC23026942F02002026100BF00BF00BF93
:102FC000026842F020020260026842F480720260ED
:102FD00048F2FE02C0F8FC23026942F020020261BE
:102FE00000BF00BF00BF026842F02002026002681A
:102FF00042F480720260026942F400720261026966
:1030000042F480720261026842F020020260C0F85D
:10301000FC13016941F02001016100BF00BF00BF46
:10302000016841F020010160016841F48071016094
:103030004FF4A061C0F8FC13016941F02001016167
:1030400000BF00BF00BF016841F0200101600168BE
:1030500041F480710160016941F40071016101690D
:1030600041F480710161016841F020010160C0F804
:10307000FCC3026942F02002026100BF00BF00BF32
:10308000026842F020020260026842F4807202602C
:1030900041F23002C0F8FC23026942F020020261D2
:1030A00000BF00BF00BF026842F020020260026859
:1030B00042F480720260026942F4007202610269A5
:1030C00042F480720261026842F020020260302203
:1030D000C0F8FC23026942F02002026100BF00BF79
:1030E00000BF026842F020020260026842F480726F
:1030F000026040F20332C0F8FC23036943F020036E
:10310000036100BF00BF00BF036843F020030360FA
:10311000036843F480730360036943F4007303613D
:10312000036943F480730361036843F02003036081
:103130003123C0F8FC33036943F02003036100BF6F
:1031400000BF00BF036843F020030360036843F43B
:1031500080730360C0F8FC23036943F0200303611C
:1031600000BF00BF00BF036843F020030360036893
:1031700043F480730360036943F4007303610369DC
:1031800043F480730361036843F020030360322338
:10319000C0F8FC33036943F02003036100BF00BFA4
:1031A00000BF036843F020030360036843F48073A7
:1031B0000360C0F8FC23036943F02003036100BFF0
:1031C00000BF00BF036843F020030360036843F4BB
:1031D00080730360036943F400730361036943F47C
:1031E00080730361036843F0200303603323C0F856
:1031F000FC33036943F02003036100BF00BF00BF3D
:10320000036843F020030360036843F480730360A2
:103210004FF44073C0F8FC33016941F020010161B3
:1032200000BF00BF00BF016841F0200101600168DC
:1032300041F480710160016941F40071016101692B
:1032400041F480710161016841F020010160342185
:10325000C0F8FC13016941F02001016100BF00BF0B
:1032600000BF016841F020010160016841F48071F4
:103270000160C0F8FCC3016941F02001016100BF99
:1032800000BF00BF016841F020010160016841F406
:1032900080710160016941F400710161016941F4CB
:1032A00080710161016841F0200101603521C0F8A1
:1032B000FC13016941F02001016100BF00BF00BFA4
:1032C000016841F020010160016841F480710160F2
:1032D000C0F8FC23016941F02001016100BF00BF7B
:1032E00000BF016841F020010160016841F4807174
:1032F0000160016941F400710161016941F480716B
:103300000161016841F0200101603621C0F8FC1321
:10331000016941F02001016100BF00BF00BF0168E9
:1033200041F020010160016841F4807101601421C5
:10333000C0F8FC13016941F02001016100BF00BF2A
:1033400000BF016841F020010160016841F4807113
:103350000160016941F400710161016941F480710A
:103360000161016841F0200101603721C0F8FC13C0
:10337000016941F02001016100BF00BF00BF016889
:1033800041F020010160016841F480710160C0F8E2
:10339000FC23016941F02001016100BF00BF00BFB3
:1033A000016841F020010160016841F48071016011
:1033B000016941F400710161016941F480710161A9
:1033C000016841F0200101603821C0F8FC13016957
:1033D00041F02001016100BF00BF00BF016841F062
:1033E00020010160016841F480710160C0F8FC2394
:1033F000016941F02001016100BF00BF00BF016809
:1034000041F020010160016841F4807101600169AF
:1034100041F400710161016941F480710161016849
:1034200041F0200101603921C0F8FC13016941F02D
:103430002001016100BF00BF00BF016841F0200111
:103440000160016841F480710160C0F8FC230169EA
:1034500041F02001016100BF00BF00BF016841F0E1
:1034600020010160016841F480710160016941F44B
:1034700000710161016941F480710161016841F0ED
:10348000200101603A21C0F8FC13016941F02001DC
:10349000016100BF00BF00BF016841F02001016071
:1034A000016841F480710160C0F8FC33016941F0AA
:1034B0002001016100BF00BF00BF016841F0200191
:1034C0000160016841F480710160016941F400719B
:1034D0000161016941F480710161016841F02001DD
:1034E00001603B21C0F8FC13016941F0200101613A
:1034F00000BF00BF00BF016841F02001016001680A
:1035000041F480710160C0F8FCC3016941F0200101
:10351000016100BF00BF00BF016841F020010160F0
:10352000016841F480710160016941F40071016139
:10353000016941F480710161016841F0200101607D
:103540003C21C0F8FC13016941F02001016100BF7A
:1035500000BF00BF016841F020010160016841F433
:1035600080710160C0F8FC23016941F02001016114
:1035700000BF00BF00BF016841F020010160016889
:1035800041F480710160016941F4007101610169D8
:1035900041F480710161016841F0200101603D2129
:1035A000C0F8FC13016941F02001016100BF00BFB8
:1035B00000BF016841F020010160016841F48071A1
:1035C00001604FF4A051C0F8FC13016941F02001E3
:1035D000016100BF00BF00BF016841F02001016030
:1035E000016841F480710160016941F40071016179
:1035F000016941F480710161016841F020010160BD
:103600009221C0F8FC13016941F02001016100BF63
:1036100000BF00BF016841F020010160016841F472
:10362000807101604FF40071C0F8FC13016941F032
:103630002001016100BF00BF00BF016841F020010F
:103640000160016841F480710160016941F4007119
:103650000161016941F480710161016841F020015B
:1036600001609321C0F8FC13016941F02001016160
:1036700000BF00BF00BF016841F020010160016888
:1036800041F480710160C0F8FC23016941F0200120
:10369000016100BF00BF00BF016841F0200101606F
:1036A000016841F480710160016941F400710161B8
:1036B000016941F480710161016841F020010160FC
:1036C0009021C0F8FC13016941F02001016100BFA5
:1036D00000BF00BF016841F020010160016841F4B2
:1036E0008071016040F60D01C0F8FC13016941F0E2
:1036F0002001016100BF00BF00BF016841F020014F
:103700000160016841F480710160016941F4007158
:103710000161016941F480710161016841F020019A
:103720000160C0F8FCC3016941F02001016100BFE4
:1037300000BF00BF016841F020010160016841F451
:103740008071016041F21801C0F8FC13016941F079
:103750002001016100BF00BF00BF016841F02001EE
:103760000160016841F480710160016941F40071F8
:103770000161016941F480710161016841F020013A
:1037800001600721C0F8FC13016941F020010161CB
:1037900000BF00BF00BF016841F020010160016867
:1037A00041F48071016040F27311C0F8FC130169AB
:1037B00041F02001016100BF00BF00BF016841F07E
:1037C00020010160016841F48071016070470000D0
:1037D0002DE9F04F81B040F21844C4F6000420698E
:1037E0004FF0120940F4007020612069002540F478
:1037F000807020612068112640F020002060E320C6
:10380000C4F8FC0320694FF0130B40F02000206146
:1038100000BF00BF00BF2068102740F020002060DC
:1038200020684FF0070840F48070206043F20800E1
:10383000C4F8FC03206940F02000206100BF00BFF5
:1038400000BF206840F020002060206840F48070B5
:103850002060206940F400702061206940F480708D
:103860002061206840F020002060E720C4F8FC03BD
:10387000206940F02000206100BF00BF00BF206829
:1038800040F020002060206840F480702060C4F880
:10389000FC93206940F02000206100BF00BF00BF02
:1038A000206840F020002060206840F48070206094
:1038B000206940F400702061206940F4807020612C
:1038C000206840F020002060EF20C4F8FC0320694D
:1038D00040F02000206100BF00BF00BF206840F022
:1038E00020002060206840F48070206041F2312088
:1038F000C4F8FC03206940F02000206100BF00BF35
:1039000000BF206840F020002060206840F48070F4
:103910002060206940F400702061206940F48070CC
:103920002061206840F0200020600120C4F8FC03E2
:10393000206940F02000206100BF00BF00BF206868
:1039400040F020002060206840F480702060C4F8BF
:10395000FC53206940F02000206100BF00BF00BF81
:10396000206840F020002060206840F480702060D3
:10397000206940F400702061206940F4807020616B
:10398000206840F0200020600220C4F8FC03206979
:1039900040F02000206100BF00BF00BF206840F061
:1039A00020002060206840F4807020604FF4E060C8
:1039B000C4F8FC03206940F02000206100BF00BF74
:1039C00000BF206840F020002060206840F4807034
:1039D0002060206940F400702061206940F480700C
:1039E0002061206840F0200020600320C4F8FC0320
:1039F000206940F02000206100BF00BF00BF2068A8
:103A000040F020002060206840F48070206041F287
:103A10003000C4F8FC03206940F02000206100BFA2
:103A200000BF00BF206840F020002060206840F404
:103A300080702060206940F400702061206940F4AB
:103A400080702061206840F0200020600420C4F8CD
:103A5000FC03206940F02000206100BF00BF00BFD0
:103A6000206840F020002060206840F480702060D2
:103A7000C4F8FC53206940F02000206100BF00BF63
:103A800000BF206840F020002060206840F4807073
:103A90002060206940F400702061206940F480704B
:103AA0002061206840F0200020600820C4F8FC035A
:103AB000206940F02000206100BF00BF00BF2068E7
:103AC00040F020002060206840F48070206040F2C8
:103AD0000720C4F8FC03206940F02000206100BFEB
:103AE00000BF00BF206840F020002060206840F444
:103AF00080702060206940F400702061206940F4EB
:103B000080702061206840F0200020600920C4F807
:103B1000FC03206940F02000206100BF00BF00BF0F
:103B2000206840F020002060206840F48070206011
:103B3000C4F8FC53206940F02000206100BF00BFA2
:103B400000BF206840F020002060206840F48070B2
:103B50002060206940F400702061206940F480708A
:103B60002061206840F0200020600A20C4F8FC0397
:103B7000206940F02000206100BF00BF00BF206826
:103B800040F020002060206840F480702060C4F87D
:103B9000FC53206940F02000206100BF00BF00BF3F
:103BA000206840F020002060206840F48070206091
:103BB000206940F400702061206940F48070206129
:103BC000206840F0200020600C20C4F8FC0320692D
:103BD00040F02000206100BF00BF00BF206840F01F
:103BE00020002060206840F480702060C4F8FC53FE
:103BF000206940F02000206100BF00BF00BF2068A6
:103C000040F020002060206840F48070206020692F
:103C100040F400702061206940F4807020612068C9
:103C200040F0200020600D20C4F8FC03206940F023
:103C30002000206100BF00BF00BF206840F02000CE
:103C40002060206840F480702060C4F8FC53206934
:103C500040F02000206100BF00BF00BF206840F09E
:103C600020002060206840F480702060206940F4CB
:103C700000702061206940F480702061206840F06D
:103C8000200020600F20C4F8FC03206940F02000D1
:103C9000206100BF00BF00BF206840F0200020600E
:103CA000206840F480702060C4F8FC53206940F024
:103CB0002000206100BF00BF00BF206840F020004E
:103CC0002060206840F480702060206940F400701B
:103CD0002061206940F480702061206840F020005D
:103CE00020601020C4F8FC03206940F0200020610F
:103CF00000BF00BF00BF206840F0200020602068A7
:103D000040F480702060C4F8FC53206940F020002B
:103D1000206100BF00BF00BF206840F0200020608D
:103D2000206840F480702060206940F400702061B9
:103D3000206940F480702061206840F020002060FD
:103D4000C4F8FC63206940F02000206100BF00BF80
:103D500000BF206840F020002060206840F48070A0
:103D600020600720C4F8FC03206940F02000206197
:103D700000BF00BF00BF206840F020002060206826
:103D800040F480702060206940F400702061206958
:103D900040F480702061206840F020002060C4F86A
:103DA000FC93206940F02000206100BF00BF00BFED
:103DB000206840F020002060206840F4807020607F
:103DC000C4F8FC53206940F02000206100BF00BF10
:103DD00000BF206840F020002060206840F4807020
:103DE0002060206940F400702061206940F48070F8
:103DF0002061206840F020002060C4F8FCB32069F6
:103E000040F02000206100BF00BF00BF206840F0EC
:103E100020002060206840F480702060C4F8FC53CB
:103E2000206940F02000206100BF00BF00BF206873
:103E300040F020002060206840F480702060C8209E
:103E4000FDF7C4FA20694FF0320A40F40070206197
:103E5000206940F480702061206840F020002060DC
:103E6000C4F8FC732069102740F02000206100BFD7
:103E700000BF00BF206840F020002060206840F4B0
:103E80008070206041F29060C4F8FC03206940F02B
:103E90002000206100BF00BF00BF206840F020006C
:103EA0002060206840F480702060206940F4007039
:103EB0002061206940F480702061206840F020007B
:103EC0002060C4F8FC63206940F02000206100BF3E
:103ED00000BF00BF206840F020002060206840F450
:103EE0008070206040F22720C4F8FC03206940F075
:103EF0002000206100BF00BF00BF206840F020000C
:103F00002060206840F4807020603220FDF75EFA67
:103F1000206940F400702061206940F480702061C5
:103F2000206840F020002060C4F8FC93206940F035
:103F30002000206100BF00BF00BF206840F02000CB
:103F40002060206840F4807020601D20C4F8FC03CD
:103F5000206940F02000206100BF00BF00BF206842
:103F600040F020002060206840F480702060322003
:103F7000FDF72CFA206940F400702061206940F4BC
:103F800080702061206840F020002060C4F8FCB3FD
:103F9000206940F02000206100BF00BF00BF206802
:103FA00040F020002060206840F4807020604FF4D2
:103FB0000060C4F8FC03206940F02000206100BFCD
:103FC00000BF00BF206840F020002060206840F45F
:103FD00080702060206940F400702061206940F406
:103FE00080702061206840F0200020602920C4F803
:103FF000FC03206940F02000206100BF00BF00BF2B
:10400000206840F020002060206840F4807020602C
:104010001420C4F8FC03206940F02000206100BF98
:1040200000BF00BF206840F020002060206840F4FE
:1040300080702060206940F400702061206940F4A5
:1040400080702061206840F0200020602B20C4F8A0
:10405000FC03206940F02000206100BF00BF00BFCA
:10406000206840F020002060206840F480702060CC
:104070000B20C4F8FC03206940F02000206100BF41
:1040800000BF00BF206840F020002060206840F49E
:10409000807020603220FDF799F92069032140F4F7
:1040A000007020612069072240F480702061206840
:1040B00040F0200020602020C4F8FC03206940F07C
:1040C0002000206100BF00BF00BF206840F020003A
:1040D0002060206840F480702060C4F8FC532069A0
:1040E00040F02000206100BF00BF00BF206840F00A
:1040F00020002060206840F480702060206940F437
:1041000000702061206940F480702061206840F0D8
:10411000200020602120C4F8FC03206940F020002A
:10412000206100BF00BF00BF206840F02000206079
:10413000206840F480702060C4F8FC53206940F08F
:104140002000206100BF00BF00BF206840F02000B9
:104150002060206840F480702060206940F4007086
:104160002061206940F480702061206840F02000C8
:1041700020603020C4F8FC03206940F0200020615A
:1041800000BF00BF00BF206840F020002060206812
:1041900040F480702060C4F8FC83206940F0200067
:1041A000206100BF00BF00BF206840F020002060F9
:1041B000206840F480702060206940F40070206125
:1041C000206940F480702061206840F02000206069
:1041D0003120C4F8FC03206940F02000206100BFBA
:1041E00000BF00BF206840F020002060206840F43D
:1041F0008070206040F20770C4F8FC03206940F032
:104200002000206100BF00BF00BF206840F02000F8
:104210002060206840F480702060206940F40070C5
:104220002061206940F480702061206840F0200007
:104230002060C4F8FCA3206940F02000206100BF8A
:1042400000BF00BF206840F020002060206840F4DC
:10425000807020600620C4F8FC03206940F0200034
:10426000206100BF00BF00BF206840F02000206038
:10427000206840F480702060206940F40070206164
:10428000206940F480702061206840F020002060A8
:104290003520C4F8FC03206940F02000206100BFF5
:1042A00000BF00BF206840F020002060206840F47C
:1042B0008070206040F20470C4F8FC03206940F074
:1042C0002000206100BF00BF00BF206840F0200038
:1042D0002060206840F480702060206940F4007005
:1042E0002061206940F480702061206840F0200047
:1042F00020603620C4F8FC03206940F020002061D3
:1043000000BF00BF00BF206840F020002060206890
:1043100040F48070206041F60470C4F8FC0320690A
:1043200040F02000206100BF00BF00BF206840F0C7
:1043300020002060206840F480702060206940F4F4
:1043400000702061206940F480702061206840F096
:10435000200020603720C4F8FC03206940F02000D2
:10436000206100BF00BF00BF206840F02000206037
:10437000206840F4807020600420C4F8FC032069A9
:1043800040F02000206100BF00BF00BF206840F067
:1043900020002060206840F480702060206940F494
:1043A00000702061206940F480702061206840F036
:1043B000200020603820C4F8FC03206940F0200071
:1043C000206100BF00BF00BF206840F020002060D7
:1043D000206840F480702060C4F8FC53206940F0ED
:1043E0002000206100BF00BF00BF206840F0200017
:1043F0002060206840F480702060206940F40070E4
:104400002061206940F480702061206840F0200025
:1044100020603920C4F8FC03206940F020002061AE
:1044200000BF00BF00BF206840F02000206020686F
:1044300040F48070206040F20670C4F8FC032069EC
:1044400040F02000206100BF00BF00BF206840F0A6
:1044500020002060206840F480702060206940F4D3
:1044600000702061206940F480702061206840F075
:10447000200020603C20C4F8FC03206940F02000AC
:10448000206100BF00BF00BF206840F02000206016
:10449000206840F48070206040F20170C4F8FC0392
:1044A000206940F02000206100BF00BF00BF2068ED
:1044B00040F020002060206840F480702060206977
:1044C00040F400702061206940F480702061206811
:1044D00040F0200020603D20C4F8FC03206940F03B
:1044E0002000206100BF00BF00BF206840F0200016
:1044F0002060206840F4807020600F20C4F8FC0326
:10450000206940F02000206100BF00BF00BF20688C
:1045100040F020002060206840F480702060206916
:1045200040F400702061206940F4807020612068B0
:1045300040F0200020605020C4F8FC03206940F0C7
:104540002000206100BF00BF00BF206840F02000B5
:104550002060206840F480702060C4F8FC5320691B
:1045600040F02000206100BF00BF00BF206840F085
:1045700020002060206840F480702060206940F4B2
:1045800000702061206940F480702061206840F054
:10459000200020605120C4F8FC03206940F0200076
:1045A000206100BF00BF00BF206840F020002060F5
:1045B000206840F480702060EF20C4F8FC0320697C
:1045C00040F02000206100BF00BF00BF206840F025
:1045D00020002060206840F480702060206940F452
:1045E00000702061206940F480702061206840F0F4
:1045F000200020605220C4F8FC03206940F0200015
:10460000206100BF00BF00BF206840F02000206094
:10461000206840F480702060C4F8FC53206940F0AA
:104620002000206100BF00BF00BF206840F02000D4
:104630002060206840F480702060206940F40070A1
:104640002061206940F480702061206840F02000E3
:1046500020605320C4F8FC03206940F02000206152
:1046600000BF00BF00BF206840F02000206020682D
:1046700040F48070206040F23F10C4F8FC032069D1
:1046800040F02000206100BF00BF00BF206840F064
:1046900020002060206840F480702060206940F491
:1046A00000702061206940F480702061206840F033
:1046B000200020606020C4F8FC03206940F0200046
:1046C000206100BF00BF00BF206840F020002060D4
:1046D000206840F4807020604FF41C50C4F8FC0344
:1046E000206940F02000206100BF00BF00BF2068AB
:1046F00040F020002060206840F480702060206935
:1047000040F400702061206940F4807020612068CE
:1047100040F0200020606120C4F8FC03206940F0D4
:104720002000206100BF00BF00BF206840F02000D3
:104730002060206840F4807020600120C4F8FC03F1
:10474000206940F02000206100BF00BF00BF20684A
:1047500040F020002060206840F4807020602069D4
:1047600040F400702061206940F48070206120686E
:1047700040F0200020606A20C4F8FC03206940F06B
:104780002000206100BF00BF00BF206840F0200073
:104790002060206840F480702060C4F8FC532069D9
:1047A00040F02000206100BF00BF00BF206840F043
:1047B00020002060206840F480702060206940F470
:1047C00000702061206940F480702061206840F012
:1047D000200020608020C4F8FC03206940F0200005
:1047E000206100BF00BF00BF206840F020002060B3
:1047F000206840F480702060C4F8FC53206940F0C9
:104800002000206100BF00BF00BF206840F02000F2
:104810002060206840F480702060206940F40070BF
:104820002061206940F480702061206840F0200001
:1048300020608120C4F8FC03206940F02000206142
:1048400000BF00BF00BF206840F02000206020684B
:1048500040F480702060C4F8FC53206940F02000D0
:10486000206100BF00BF00BF206840F02000206032
:10487000206840F480702060206940F4007020615E
:10488000206940F480702061206840F020002060A2
:104890008220C4F8FC03206940F02000206100BFA2
:1048A00000BF00BF206840F020002060206840F476
:1048B00080702060C4F8FC53206940F02000206123
:1048C00000BF00BF00BF206840F0200020602068CB
:1048D00040F480702060206940F4007020612069FD
:1048E00040F480702061206840F020002060832028
:1048F000C4F8FC03206940F02000206100BF00BF25
:1049000000BF206840F020002060206840F48070E4
:104910002060C4F8FC53206940F02000206100BFF3
:1049200000BF00BF206840F020002060206840F4F5
:1049300080702060206940F400702061206940F49C
:1049400080702061206840F0200020608420C4F83E
:10495000FC03206940F02000206100BF00BF00BFC1
:10496000206840F020002060206840F480702060C3
:10497000C4F8FC53206940F02000206100BF00BF54
:1049800000BF206840F020002060206840F4807064
:104990002060206940F400702061206940F480703C
:1049A0002061206840F0200020608520C4F8FC03CE
:1049B000206940F02000206100BF00BF00BF2068D8
:1049C00040F020002060206840F480702060C4F82F
:1049D000FC53206940F02000206100BF00BF00BFF1
:1049E000206840F020002060206840F48070206043
:1049F000206940F400702061206940F480702061DB
:104A0000206840F0200020609020C4F8FC0320695A
:104A100040F02000206100BF00BF00BF206840F0D0
:104A200020002060206840F480702060C4F8FC738F
:104A3000206940F02000206100BF00BF00BF206857
:104A400040F020002060206840F4807020602069E1
:104A500040F400702061206940F48070206120687B
:104A600040F0200020609220C4F8FC03206940F050
:104A70002000206100BF00BF00BF206840F0200080
:104A80002060206840F480702060C4F8FC532069E6
:104A900040F02000206100BF00BF00BF206840F050
:104AA00020002060206840F480702060206940F47D
:104AB00000702061206940F480702061206840F01F
:104AC000200020609320C4F8FC03206940F02000FF
:104AD000206100BF00BF00BF206840F020002060C0
:104AE000206840F480702060C4F8FC13206940F016
:104AF0002000206100BF00BF00BF206840F0200000
:104B00002060206840F480702060206940F40070CC
:104B10002061206940F480702061206840F020000E
:104B200020609520C4F8FC03206940F0200020613B
:104B300000BF00BF00BF206840F020002060206858
:104B400040F4807020604FF48870C4F8FC03206942
:104B500040F02000206100BF00BF00BF206840F08F
:104B600020002060206840F480702060206940F4BC
:104B700000702061206940F480702061206840F05E
:104B8000200020609720C4F8FC03206940F020003A
:104B9000206100BF00BF00BF206840F020002060FF
:104BA000206840F480702060C4F8FC53206940F015
:104BB0002000206100BF00BF00BF206840F020003F
:104BC0002060206840F480702060206940F400700C
:104BD0002061206940F480702061206840F020004E
:104BE00020609820C4F8FC03206940F02000206178
:104BF00000BF00BF00BF206840F020002060206898
:104C000040F480702060C4F8FC53206940F020001C
:104C1000206100BF00BF00BF206840F0200020607E
:104C2000206840F480702060206940F400702061AA
:104C3000206940F480702061206840F020002060EE
:104C4000C4F8FC13206940F02000206100BF00BFC1
:104C500000BF206840F020002060206840F4807091
:104C6000206041F21800C4F8FC03206940F02000E5
:104C7000206100BF00BF00BF206840F0200020601E
:104C8000206840F480702060206940F4007020614A
:104C9000206940F480702061206840F0200020608E
:104CA000C4F8FC23206940F02000206100BF00BF51
:104CB00000BF206840F020002060206840F4807031
:104CC000206040F27310C4F8FC03206940F020001B
:104CD000206100BF00BF00BF206840F020002060BE
:104CE000206840F48070206001B0BDE8F08F0000C3
:104CF00070470000FCF76ABC4EF68850CEF2000008
:104D0000016841F4700101607047000040F2FF7CCF
:104D10000268C4F2000C604524DD40F60003C4F2D2
:104D20000003984227D043F20043C4F201039842A3
:104D300021D042F60043C4F2010398421BD043F253
:104D4000FF33C4F2010398421FDC604530DCB0F150
:104D5000804F47D040F20043C4F20003984241D054
:104D600044E000BFB0F1804F05D040F20043C4F2F0
:104D700000039842E3D14B6822F070021A4343F2D9
:104D8000FF33C4F201039842DFDD44F2FF33C4F283
:104D9000010398421ADC43F20043C4F20103984233
:104DA00020D044F20003C4F2010398421AD01DE05F
:104DB00040F60003C4F20003984213D042F60043C9
:104DC000C4F2010398420DD010E000BF44F6000386
:104DD000C4F20103984205D044F20043C4F2010337
:104DE000984203D1CB6822F440721A4380B54B69D4
:104DF00022F0800E8A6843EA0E03D1F800C00360F7
:104E0000C262A0F18042A2F596324FEAB222072A8E
:104E1000C0F828C0BDE8804007D8012303FA02F299
:104E200012F0E50F1CBF09690163012141610169AD
:104E3000C90708BF7047016921F00101016170478E
:104E4000FEE7000040F28800C2F20000C17861B1C4
:104E500040F29801C2F200010A780132D3B2032B6A
:104E600088BF00220A700021C170817931B10178B8
:104E7000B1FA81F14909017000218171417A00295B
:104E800040F20001C2F2000129D0027882B991ED0E
:104E9000000A9FED281AB4EE410AF1EE10FA07DA83
:104EA0009FED251A30EE010A81ED000A15E000BFE2
:104EB000012A12D140F20402C2F2000292ED000A6D
:104EC000B1EE041AB4EE410AF1EE10FABEBFB7EE2D
:104ED000001A30EE010A82ED000A00224272027BC3
:104EE000002A08BF7047027862B991ED000A9FED71
:104EF000131AB4EE410AF1EE10FA03DD9FED101A19
:104F000011E000BF012A12D140F20401C2F20001F7
:104F100091ED000AB7EE001AB4EE410AF1EE10FA74
:104F200005DDBFEE001A30EE010A81ED000A002116
:104F300001737047CDCCCC3FCDCCCC3D9A99193F75
:104F4000CDCCCCBDB0B540F20044C4F60004204640
:104F50000121FCF729FB40F28805C2F200056870C8
:104F600020B9A978012904BF0121E970A870204661
:104F70000221FCF719FB287120B96979012904BFC6
:104F80000121A971687120460421FCF70DFBE8712D
:104F900020B9297A012904BF0121697228724FF0D2
:104FA00090400121FCF700FBA87220B9E97A0129A1
:104FB00004BF01212973E872B0BD00002DE9F04162
:104FC000054600EB400040F28847C60005EB85002F
:104FD000C2F2000707EB8004A5B140F28848C2F294
:104FE000000800204146FDF765FA012D44D11F203D
:104FF000FDF76AFDF0B22146FDF75CFA0020FDF7EF
:1050000063FD0EE01F20FDF75FFDF0B22146FDF7C6
:1050100051FA0020FDF758FD07F114011820FDF7A3
:1050200049FA07F128013020FDF744FA07F13C0165
:105030004820FDF73FFA07F150016020FDF73AFAEA
:1050400007F164017820FDF735FA07F17801902027
:10505000FDF730FA07F18C01A820FDF72BFA07F1D4
:10506000A001C020FDF726FA07F1B401D820BDE861
:10507000F041FDF71FBA00BF08F114011820FDF739
:1050800019FA022D0AD11F20FDF71EFDF0B22146AC
:10509000FDF710FA0020FDF717FDC7E708F128011A
:1050A0003020FDF707FA032D0AD11F20FDF70CFD74
:1050B000F0B22146FDF7FEF90020FDF705FDBAE745
:1050C00008F13C014820FDF7F5F9042D0AD11F2015
:1050D000FDF7FAFCF0B22146FDF7ECF90020FDF7F0
:1050E000F3FCADE708F150016020FDF7E3F9052D71
:1050F0000AD11F20FDF7E8FCF0B22146FDF7DAF9EE
:105100000020FDF7E1FCA0E708F164017820FDF73D
:10511000D1F9062D0AD11F20FDF7D6FCF0B22146A9
:10512000FDF7C8F90020FDF7CFFC93E708F17801FF
:105130009020FDF7BFF9072D0AD11F20FDF7C4FC11
:10514000F0B22146FDF7B6F90020FDF7BDFC86E779
:1051500008F18C01A820FDF7ADF9082D10D11F2012
:10516000FDF7B2FCF0B22146FDF7A4F90020FDF7EF
:10517000ABFC07F1B401D820BDE8F041FDF79AB9C6
:1051800008F1A001C020FDF795F9092D7FF46CAF5F
:105190001F20FDF799FCF0B22146FDF78BF90020A6
:1051A000BDE8F041FDF790BC10B540F29802C2F2A4
:1051B000000248F65C20127840F21804C0F60000A5
:1051C000C2F2000490E80A5054F8222040F28844C9
:1051D000C2F2000461610169808A616248F60421BB
:1051E000208504F13C00C0F60001A361C4F81CC096
:1051F000C4F820E0FBF786F840F20000C2F200009D
:10520000006802F081F90B4648F61A21024604F1C3
:105210006400C0F60001FBF775F840F20400C2F22A
:105220000000006802F070F90B4648F63021024693
:1052300004F18C00C0F60001FBF764F840F288002E
:10524000C2F2000001780720002908BF0520BDE850
:105250001040FFF7B3BE000094B0FCF7C5F900247E
:105260004FF400700C94CDE90A44CDE90844FCF7F2
:105270005BFA012006904FF4803007900220142141
:105280000D900325CDE91010CDE9120006A8CDE957
:105290000E55FCF763FC28B1EFF3108072B600BF27
:1052A000FEE700BF0F20CDE9010501A80221CDE9ED
:1052B00003440594FCF7CAFA20B1EFF3108072B6EC
:1052C000FEE700BF1424C4F60004FDF769FCFDF7F7
:1052D00043FCFDF711FCFDF7D9FC40F60040C4F695
:1052E000000004210022FCF765F9FDF7C5FA002053
:1052F000FCF798FF0020FDF7E7FB4FF6FF70FDF786
:10530000EFFB40F23C40C2F20000FCF743FF40F2EA
:105310009805C2F2000506E0206880F020002060B9
:105320000420FCF753F8FCF74BF96968401A0A2887
:1053300004D3FFF707FEFCF743F96860FFF782FD2F
:1053400000F00EF8FCF73CF9A968401A6428E3D392
:10535000FFF72AFFFCF734F9A860DDE70000000042
:105360002DE9F04F81B02DED068B84B040F20000A6
:10537000C2F2000090ED000A9FED621A9FED622AD2
:1053800020EE010A80EE020A40F29808C2F20008FC
:1053900090ED019A98F800000328BDEEC00A10EEC7
:1053A000106AA8F8026000F2F3819FED580A9FEDA1
:1053B00058AA29EE000A80EE0A8ADFE810F00500FC
:1053C0004701AB00050100BF40F2A604C2F2000491
:1053D000A51E0026B0B200EE100AB8EE400A28EE74
:1053E000000A10EE100A02F08FF841EC100B00F0EA
:1053F0005FFE51EC100B01F009FBB8F8021000EE53
:10540000100A01EE101AB8EE411A20EE010ABDEEA4
:10541000C00A10EE100A08446880701C80B200EECA
:10542000100AB8EE400A28EE000A10EE100A02F048
:105430006BF841EC100B00F03BFE51EC100B01F04F
:10544000E5FAB8F8021000EE100A01EE101AB8EEF4
:10545000411A20EE010ABDEEC00A10EE100A0844FF
:1054600004EB46077880B01C80B200EE100AB8EE5C
:10547000400A28EE000A10EE100A02F045F841EC4E
:10548000100B00F015FE51EC100B01F0BFFAB8F84C
:10549000021000EE100A01EE101AB8EE411A20EECA
:1054A000010ABDEEC00A10EE100A0844B880F01CD4
:1054B00080B200EE100AB8EE400A28EE000A10EEA4
:1054C000100A02F021F841EC100B00F0F1FD51EC54
:1054D000100B01F09BFAB8F8021000EE100A01EE72
:1054E000101AB8EE411A20EE010ABDEEC00A10EE05
:1054F000100A08440436B6F5C87F25F8080F7FF473
:1055000069AF45E100F07F4533335340DA0FC940BE
:105510000000C843304601F03DFD9FEDAB0B044653
:105520000D4651EC100B9FEDAA0BCDE9021051EC8A
:10553000100B9FEDA30B4FF000084FEAD1795BEC05
:1055400010AB00BF00EE108AB8EEC00A29EE000AC8
:1055500080EE0A0A10EE100A01F0D6FFDDE90232F1
:1055600006460F4601F084FA41EC100B00F014FDE2
:1055700053EC102B3046394601F0D8FE02460B465C
:1055800001F076FA69F3DF7102460B4601F070FA1A
:1055900052465B4601F06CFA02460B46204629460D
:1055A00001F084FD22462B4601F062FA01F0ACFCCA
:1055B00040F2A601C2F2000121F8180008F101082A
:1055C000B8F5C87FBED1E3E0304601F0E3FC9FEDC3
:1055D0007C0B40F2A60B82460D46002459EC108B42
:1055E000C2F2000B00EE104AB8EEC00A29EE000A23
:1055F00080EE0A0A10EE100A01F086FF41EC100B53
:1056000006460F4600F0C8FC53EC102B30463946D6
:1056100001F08CFE02460B4601F02AFA42464B4648
:1056200001F026FA02460B465046294601F03EFD9F
:1056300052462B4601F01CFA01F066FC2BF81400D0
:105640000134B4F5C87FCDD1A2E000BF40F2A6007E
:105650009FED5F0BC2F20000A0F10A0700245AEC94
:10566000109B00BF00EE104AB8EEC00A28EE000AF8
:1056700010EE100A01F048FF41EC100B00F018FD8D
:10568000B8F8025051EC100B4A46534601F075FF32
:105690000028284608BF4042304427F80A0F601C03
:1056A00000EE100AB8EEC00A28EE000A10EE100A4A
:1056B00001F02AFF41EC100B00F0FAFCB8F8026090
:1056C00051EC100B4A46534601F057FF0028304674
:1056D00008BF404228447880A01C00EE100AB8EEB3
:1056E000C00A28EE000A10EE100A01F00DFF41EC8E
:1056F000100B00F0DDFCB8F8025051EC100B4A46DC
:10570000534601F03AFF0028284608BF4042304483
:10571000B880E01C00EE100AB8EEC00A28EE000ABD
:1057200010EE100A01F0F0FE41EC100B00F0C0FC8E
:10573000B8F802B051EC100B4A46534601F01DFF79
:105740000028584608BF40422844F880201D00EE3B
:10575000100AB8EEC00A28EE000A10EE100A01F096
:10576000D3FE41EC100B00F0A3FCB8F8026051EC42
:10577000100B4A46534601F000FF0028304608BF90
:10578000404205345844B4F5C87F38817FF46AAF8D
:1057900040F2C83040F2A6020027C2F20000C2F276
:1057A000000200214FF4C8730097FBF711FC04B00E
:1057B000BDEC068B01B0BDE8F08F00BF00BF00BF9D
:1057C000000000000000F0BF000000000000E03F0B
:1057D00000000000000000005FEA400C08BF91F0EC
:1057E000000F4FEA8C234FEAC12243EA51514FEA9E
:1057F0001C5018BF00F5F0404FEA300018BF41F0D0
:1058000000415FEA6C5C00F02980BCF1FF3F08BFFB
:1058100040F080407047130C06BF12044FF0100C8C
:105820004FF0000C130E04BF12020CF1080C130F02
:1058300004BF12010CF1040C930F04BF92000CF191
:10584000020CD30F04BF52000CF1010C11464FF0B3
:105850000002A0F11F00A0EB0C00704711F0004FF8
:1058600008BF704731F000413FF4D5AF0B0C06BFC5
:1058700009044FF0100C4FF0000C0B0E04BF09028E
:105880000CF1080C0B0F04BF09010CF1040C8B0F79
:1058900004BF89000CF1020CCB0F04BF49000CF1CE
:1058A000010CCCF1200322FA03F341EA030102FACE
:1058B0000CF2A0EB0C0000F10100704723F07F47D1
:1058C00020F07F4C80EA030000F00040ACEB0703BF
:1058D00003F57C5303F1FF032DE9804909B44FEA36
:1058E000144324EA03484FEA154B25EA0B4E0FF206
:1058F000042606EB13273E7803FB0667C7F500076F
:1059000007FB06F64FEAD64606F102064FEA543781
:1059100007FB066CCCF1005C4FEA1C472CEA074CF5
:105920000CFB06F507FB06F404EB15464FEA96164A
:1059300049085FEA320234BF00204FF000404FEACE
:10594000D13706FB07FC4FEA1C4C0CFB0BF7D21BB4
:1059500003FB0CF761EB07010CFB0EF7B0EB074004
:1059600072EB17420CFB08F734BFA2EB0742B2EB15
:10597000074261EB17414FEA0C444FEA910706FBDF
:1059800007FC4FEA1C4C0CFB0BF7B0EBC74072EB6B
:10599000573203FB0CF734BFA2EBC742B2EBC7424E
:1059A00061EB57310CFB0EF7B0EBC70072EB57728F
:1059B0000CFB08F734BFA2EBC702B2EBC70261EBE6
:1059C00057714FEA816141EA92114FEA826242EADD
:1059D00090124FEA806004EBCC04039F4FEAD1376A
:1059E00006FB07FC4FEA1C4C0CFB0BF7D21B03FB1E
:1059F0000CF761EB07010CFB0EF7B0EB074072EB05
:105A000017420CFB08F734BFA2EB0742B2EB074288
:105A100061EB17414FEA8C5504EB9C244FEA910748
:105A200006FB07FC4FEA1C4C0CFB0BF7B0EBC74026
:105A300072EB573203FB0CF734BFA2EBC742B2EB59
:105A4000C74261EB57310CFB0EF7B0EBC70072EBAE
:105A500057720CFB08F734BFA2EBC702B2EBC702C8
:105A600061EB57714FEA816141EA92114FEA82621C
:105A700042EA90124FEA806015EB4C2544F1000495
:105A80004FEAD13706FB07FC4FEA1C4C0CFB0BF727
:105A9000D21B03FB0CF761EB07010CFB0EF7B0EB1D
:105AA000074072EB17420CFB08F734BFA2EB07422A
:105AB000B2EB074261EB17414FEA813141EA924173
:105AC0004FEA823242EA90424FEA80304FEA0C7647
:105AD00015EB1C1544F1000448EA03434EEA0B4859
